{
  "contractName": "Escrow",
  "abi": [
    {
      "inputs": [],
      "payable": false,
      "stateMutability": "nonpayable",
      "type": "constructor"
    },
    {
      "payable": true,
      "stateMutability": "payable",
      "type": "fallback"
    },
    {
      "anonymous": false,
      "inputs": [
        {
          "indexed": false,
          "name": "_depositer",
          "type": "address"
        }
      ],
      "name": "Deposit",
      "type": "event"
    },
    {
      "anonymous": false,
      "inputs": [
        {
          "indexed": false,
          "name": "_depositer",
          "type": "address"
        }
      ],
      "name": "Withdraw",
      "type": "event"
    },
    {
      "anonymous": false,
      "inputs": [
        {
          "indexed": false,
          "name": "_purchaser",
          "type": "address"
        }
      ],
      "name": "Purchased",
      "type": "event"
    },
    {
      "anonymous": false,
      "inputs": [
        {
          "indexed": false,
          "name": "_depositer",
          "type": "address"
        }
      ],
      "name": "Authenticate",
      "type": "event"
    },
    {
      "constant": false,
      "inputs": [],
      "name": "deposit",
      "outputs": [
        {
          "name": "",
          "type": "uint256"
        }
      ],
      "payable": true,
      "stateMutability": "payable",
      "type": "function"
    },
    {
      "constant": false,
      "inputs": [
        {
          "name": "amount",
          "type": "uint256"
        }
      ],
      "name": "withdraw",
      "outputs": [
        {
          "name": "",
          "type": "bool"
        }
      ],
      "payable": false,
      "stateMutability": "nonpayable",
      "type": "function"
    },
    {
      "constant": true,
      "inputs": [],
      "name": "getBalance",
      "outputs": [
        {
          "name": "",
          "type": "uint256"
        }
      ],
      "payable": false,
      "stateMutability": "view",
      "type": "function"
    },
    {
      "constant": true,
      "inputs": [],
      "name": "getMyBalance",
      "outputs": [
        {
          "name": "",
          "type": "uint256"
        }
      ],
      "payable": false,
      "stateMutability": "view",
      "type": "function"
    },
    {
      "constant": true,
      "inputs": [],
      "name": "getPurchaseRequests",
      "outputs": [
        {
          "name": "",
          "type": "uint256"
        }
      ],
      "payable": false,
      "stateMutability": "view",
      "type": "function"
    },
    {
      "constant": false,
      "inputs": [
        {
          "name": "amount",
          "type": "uint256"
        },
        {
          "name": "seller",
          "type": "address"
        },
        {
          "name": "mtcn",
          "type": "string"
        }
      ],
      "name": "makePurchase",
      "outputs": [
        {
          "name": "",
          "type": "bool"
        }
      ],
      "payable": false,
      "stateMutability": "nonpayable",
      "type": "function"
    },
    {
      "constant": false,
      "inputs": [
        {
          "name": "index",
          "type": "uint256"
        }
      ],
      "name": "authenticate",
      "outputs": [
        {
          "name": "",
          "type": "bool"
        }
      ],
      "payable": false,
      "stateMutability": "nonpayable",
      "type": "function"
    },
    {
      "constant": false,
      "inputs": [
        {
          "name": "x",
          "type": "uint256"
        }
      ],
      "name": "set",
      "outputs": [],
      "payable": false,
      "stateMutability": "nonpayable",
      "type": "function"
    },
    {
      "constant": true,
      "inputs": [],
      "name": "get",
      "outputs": [
        {
          "name": "",
          "type": "uint256"
        }
      ],
      "payable": false,
      "stateMutability": "view",
      "type": "function"
    }
  ],
  "bytecode": "0x6060604052341561000f57600080fd5b33600160006101000a81548173ffffffffffffffffffffffffffffffffffffffff021916908373ffffffffffffffffffffffffffffffffffffffff1602179055506000600481905550610a0b806100676000396000f300606060405260043610610099576000357c0100000000000000000000000000000000000000000000000000000000900463ffffffff16806312065fe01461009b578063195ad926146100c45780632e1a7d4d146100ff5780634c7389091461013a57806360fe47b1146101635780636d4ce63c1461018657806399d4aec9146101af578063d0e30db0146101d8578063eecf78b3146101f6575b005b34156100a657600080fd5b6100ae610293565b6040518082815260200191505060405180910390f35b34156100cf57600080fd5b6100e5600480803590602001909190505061032a565b604051808215151515815260200191505060405180910390f35b341561010a57600080fd5b61012060048080359060200190919050506103e8565b604051808215151515815260200191505060405180910390f35b341561014557600080fd5b61014d610585565b6040518082815260200191505060405180910390f35b341561016e57600080fd5b6101846004808035906020019091905050610602565b005b341561019157600080fd5b61019961060c565b6040518082815260200191505060405180910390f35b34156101ba57600080fd5b6101c2610615565b6040518082815260200191505060405180910390f35b6101e061066f565b6040518082815260200191505060405180910390f35b341561020157600080fd5b610279600480803590602001909190803573ffffffffffffffffffffffffffffffffffffffff1690602001909190803590602001908201803590602001908080601f016020809104026020016040519081016040528093929190818152602001838380828437820191505050505050919050506107b4565b604051808215151515815260200191505060405180910390f35b6000336000600260008373ffffffffffffffffffffffffffffffffffffffff1673ffffffffffffffffffffffffffffffffffffffff168152602001908152602001600020541115156102e457600080fd5b600260003373ffffffffffffffffffffffffffffffffffffffff1673ffffffffffffffffffffffffffffffffffffffff1681526020019081526020016000205491505090565b6000600454821115801561033e5750600082115b156103de5760016003600084815260200190815260200160002060010160146101000a81548160ff0219169083151502179055507f76f1dbd43eba5c32ca048bd96e7b3787572d3312e3ccb6a94f156958b65f989d33604051808273ffffffffffffffffffffffffffffffffffffffff1673ffffffffffffffffffffffffffffffffffffffff16815260200191505060405180910390a1600190506103e3565b600090505b919050565b6000336000600260008373ffffffffffffffffffffffffffffffffffffffff1673ffffffffffffffffffffffffffffffffffffffff1681526020019081526020016000205411151561043957600080fd5b600260003373ffffffffffffffffffffffffffffffffffffffff1673ffffffffffffffffffffffffffffffffffffffff168152602001908152602001600020548311151561057a5782600260003373ffffffffffffffffffffffffffffffffffffffff1673ffffffffffffffffffffffffffffffffffffffff168152602001908152602001600020600082825403925050819055503373ffffffffffffffffffffffffffffffffffffffff166108fc849081150290604051600060405180830381858888f19350505050151561050e57600080fd5b7ff67611512e0a2d90c96fd3f08dca4971bc45fba9dc679eabe839a32abbe58a8e33604051808273ffffffffffffffffffffffffffffffffffffffff1673ffffffffffffffffffffffffffffffffffffffff16815260200191505060405180910390a16001915061057f565b600091505b50919050565b600033600160009054906101000a900473ffffffffffffffffffffffffffffffffffffffff1673ffffffffffffffffffffffffffffffffffffffff168173ffffffffffffffffffffffffffffffffffffffff161415156105e457600080fd5b3073ffffffffffffffffffffffffffffffffffffffff163191505090565b8060008190555050565b60008054905090565b6000336000600260008373ffffffffffffffffffffffffffffffffffffffff1673ffffffffffffffffffffffffffffffffffffffff1681526020019081526020016000205411151561066657600080fd5b60045491505090565b6000803411151561067f57600080fd5b34600260003373ffffffffffffffffffffffffffffffffffffffff1673ffffffffffffffffffffffffffffffffffffffff168152602001908152602001600020600082825401925050819055503073ffffffffffffffffffffffffffffffffffffffff166108fc349081150290604051600060405180830381858888f19350505050151561070c57600080fd5b7f8ce0bd46ec50cf39f0d0ea8686a686eb226af5796dcda4231b26fb84b5ef123433604051808273ffffffffffffffffffffffffffffffffffffffff1673ffffffffffffffffffffffffffffffffffffffff16815260200191505060405180910390a1600260003373ffffffffffffffffffffffffffffffffffffffff1673ffffffffffffffffffffffffffffffffffffffff16815260200190815260200160002054905090565b60003373ffffffffffffffffffffffffffffffffffffffff168373ffffffffffffffffffffffffffffffffffffffff1614151561092e57600160046000828254019250508190555083600360006004548152602001908152602001600020600001819055508260036000600454815260200190815260200160002060020160006101000a81548173ffffffffffffffffffffffffffffffffffffffff021916908373ffffffffffffffffffffffffffffffffffffffff1602179055503360036000600454815260200190815260200160002060010160006101000a81548173ffffffffffffffffffffffffffffffffffffffff021916908373ffffffffffffffffffffffffffffffffffffffff1602179055508160036000600454815260200190815260200160002060030190805190602001906108f392919061093a565b50600060036000600454815260200190815260200160002060010160146101000a81548160ff02191690831515021790555060019050610933565b600090505b9392505050565b828054600181600116156101000203166002900490600052602060002090601f016020900481019282601f1061097b57805160ff19168380011785556109a9565b828001600101855582156109a9579182015b828111156109a857825182559160200191906001019061098d565b5b5090506109b691906109ba565b5090565b6109dc91905b808211156109d85760008160009055506001016109c0565b5090565b905600a165627a7a72305820d75ce3f41782b1d0b446fb045e2dde843f69b92ff2e05bb212cb6e6bde841b6c0029",
  "source": "pragma solidity ^0.4.18;\n\ncontract Escrow {\n  //state variables\n  uint storedData;\n  address owner; //owner of contract\n  mapping (address => uint) private deposit_accounts; //list of organizations depsoiting\n  mapping (uint => Purchase) private purchase_registry;\n  struct Purchase {\n    uint amount;\n    address purchaser;\n    bool approved;\n    address seller;\n    string mtcn;\n  }\n  uint purchase_requests; //number of purchase requests\n\n  //constructor setting contract owner\n  function Escrow() public {\n    owner = msg.sender;\n    purchase_requests = 0;\n  }\n\n  //modifiers\n  modifier isOwner (address _owner) { require(_owner == owner); _;} //checking owner\n  //checking if org on deposit list\n  modifier isDepositer (address _depositer) { require(deposit_accounts[_depositer] > 0); _;}\n\n  //events\n  event Deposit(address _depositer); //event for deposits\n  event Withdraw(address _depositer); //event for withdraws from depositer\n  event Purchased(address _purchaser); //event for conversion agents to purchase eth/dai\n  event Authenticate(address _depositer); //event for depositer to authenticate purchases of eth/dai\n\n  //functions\n  function deposit() public payable returns (uint) {\n    //depositing funds into escrow account\n    require(msg.value > 0);\n    deposit_accounts[msg.sender] += msg.value;\n    this.transfer(msg.value);\n    Deposit(msg.sender);\n    return deposit_accounts[msg.sender];\n  }\n\n  function withdraw(uint amount) public isDepositer(msg.sender) returns (bool) {\n    //withdrawing funds from escrow account\n    if (amount <= deposit_accounts[msg.sender]) {\n      deposit_accounts[msg.sender] -= amount;\n      msg.sender.transfer(amount);\n      Withdraw(msg.sender);\n      return true;\n    } else {\n      return false;\n    }\n  }\n\n  function getBalance() public view isDepositer(msg.sender) returns (uint) {\n    //get balance of amount in escrow pool\n    return deposit_accounts[msg.sender];\n  }\n\n  function getMyBalance() public view isOwner(msg.sender) returns (uint) {\n    return this.balance;\n  }\n\n  function getPurchaseRequests() public view isDepositer(msg.sender) returns (uint) {\n    return purchase_requests;\n  }\n\n  /*\n  function getPurchases() constant public\n  isDepositer(msg.sender) {\n    //retrieves un-approved purchase requests\n    Purchased(msg.sender);\n  }\n  */\n\n  function makePurchase(uint amount, address seller, string mtcn) public returns (bool) {\n    //send purchase request for eth\n    if (seller != msg.sender) {\n      purchase_requests += 1; //increment the request number overall\n      purchase_registry[purchase_requests].amount = amount; //capture requested amount to be purchased\n      purchase_registry[purchase_requests].seller = seller; //capture who they are trying to purchase\n      purchase_registry[purchase_requests].purchaser = msg.sender;\n      purchase_registry[purchase_requests].mtcn = mtcn; //put in western union MTCN number to be auth\n      purchase_registry[purchase_requests].approved = false; //approval status or not\n      return true;\n    } else {\n      return false;\n    }\n  }\n\n  function authenticate(uint index) public returns (bool) {\n    if (index <= purchase_requests && index > 0) {\n      purchase_registry[index].approved = true;\n      Authenticate(msg.sender);\n      return true;\n    } else {\n      return false;\n    }\n  }\n\n  function set(uint x) public {\n    storedData = x;\n  }\n\n  function get() public view returns (uint) {\n    return storedData;\n  }\n\n  //fallback function\n  function () payable {}\n}\n",
  "sourcePath": "/Applications/MAMP/htdocs/crypto_conversion/contracts/Escrow.sol",
  "compiler": {
    "name": "solc",
    "version": "0.4.19+commit.c4cbbb05.Emscripten.clang"
  },
  "schemaVersion": "1.0.1",
  "updatedAt": "2018-02-21T05:52:19.907Z"
}